{"abi":[{"type":"constructor","inputs":[{"name":"_usdcToken","type":"address","internalType":"address"},{"name":"_platformTreasury","type":"address","internalType":"address"}],"stateMutability":"nonpayable"},{"type":"function","name":"BASIS_POINTS","inputs":[],"outputs":[{"name":"","type":"uint256","internalType":"uint256"}],"stateMutability":"view"},{"type":"function","name":"BRONZE_MIN","inputs":[],"outputs":[{"name":"","type":"uint256","internalType":"uint256"}],"stateMutability":"view"},{"type":"function","name":"CLAIM_TYPEHASH","inputs":[],"outputs":[{"name":"","type":"bytes32","internalType":"bytes32"}],"stateMutability":"view"},{"type":"function","name":"CRITICAL_THRESHOLD","inputs":[],"outputs":[{"name":"","type":"uint256","internalType":"uint256"}],"stateMutability":"view"},{"type":"function","name":"DOMAIN_SEPARATOR","inputs":[],"outputs":[{"name":"","type":"bytes32","internalType":"bytes32"}],"stateMutability":"view"},{"type":"function","name":"GOLD_MIN","inputs":[],"outputs":[{"name":"","type":"uint256","internalType":"uint256"}],"stateMutability":"view"},{"type":"function","name":"LOCK_PERIOD","inputs":[],"outputs":[{"name":"","type":"uint256","internalType":"uint256"}],"stateMutability":"view"},{"type":"function","name":"MIN_POOL_BALANCE","inputs":[],"outputs":[{"name":"","type":"uint256","internalType":"uint256"}],"stateMutability":"view"},{"type":"function","name":"PENALTY_RATE","inputs":[],"outputs":[{"name":"","type":"uint256","internalType":"uint256"}],"stateMutability":"view"},{"type":"function","name":"PLATINUM_MIN","inputs":[],"outputs":[{"name":"","type":"uint256","internalType":"uint256"}],"stateMutability":"view"},{"type":"function","name":"SILVER_MIN","inputs":[],"outputs":[{"name":"","type":"uint256","internalType":"uint256"}],"stateMutability":"view"},{"type":"function","name":"WARNING_THRESHOLD","inputs":[],"outputs":[{"name":"","type":"uint256","internalType":"uint256"}],"stateMutability":"view"},{"type":"function","name":"autoUnlock","inputs":[{"name":"commitment","type":"bytes32","internalType":"bytes32"}],"outputs":[],"stateMutability":"nonpayable"},{"type":"function","name":"checkProviderHealth","inputs":[{"name":"provider","type":"address","internalType":"address"}],"outputs":[{"name":"status","type":"string","internalType":"string"},{"name":"balance","type":"uint256","internalType":"uint256"},{"name":"available","type":"uint256","internalType":"uint256"}],"stateMutability":"view"},{"type":"function","name":"claimInsurance","inputs":[{"name":"commitment","type":"bytes32","internalType":"bytes32"}],"outputs":[],"stateMutability":"nonpayable"},{"type":"function","name":"claims","inputs":[{"name":"","type":"bytes32","internalType":"bytes32"}],"outputs":[{"name":"provider","type":"address","internalType":"address"},{"name":"client","type":"address","internalType":"address"},{"name":"amount","type":"uint256","internalType":"uint256"},{"name":"lockedAt","type":"uint256","internalType":"uint256"},{"name":"unlockAt","type":"uint256","internalType":"uint256"},{"name":"status","type":"uint8","internalType":"enum X402InsuranceV3.ClaimStatus"},{"name":"commitment","type":"bytes32","internalType":"bytes32"}],"stateMutability":"view"},{"type":"function","name":"clientNonces","inputs":[{"name":"","type":"address","internalType":"address"}],"outputs":[{"name":"","type":"uint256","internalType":"uint256"}],"stateMutability":"view"},{"type":"function","name":"confirmDelivery","inputs":[{"name":"commitment","type":"bytes32","internalType":"bytes32"}],"outputs":[],"stateMutability":"nonpayable"},{"type":"function","name":"deposit","inputs":[{"name":"amount","type":"uint256","internalType":"uint256"}],"outputs":[],"stateMutability":"nonpayable"},{"type":"function","name":"eip712Domain","inputs":[],"outputs":[{"name":"fields","type":"bytes1","internalType":"bytes1"},{"name":"name","type":"string","internalType":"string"},{"name":"version","type":"string","internalType":"string"},{"name":"chainId","type":"uint256","internalType":"uint256"},{"name":"verifyingContract","type":"address","internalType":"address"},{"name":"salt","type":"bytes32","internalType":"bytes32"},{"name":"extensions","type":"uint256[]","internalType":"uint256[]"}],"stateMutability":"view"},{"type":"function","name":"emergencyWithdraw","inputs":[{"name":"token","type":"address","internalType":"address"},{"name":"amount","type":"uint256","internalType":"uint256"}],"outputs":[],"stateMutability":"nonpayable"},{"type":"function","name":"getClaimDetails","inputs":[{"name":"commitment","type":"bytes32","internalType":"bytes32"}],"outputs":[{"name":"provider","type":"address","internalType":"address"},{"name":"client","type":"address","internalType":"address"},{"name":"amount","type":"uint256","internalType":"uint256"},{"name":"lockedAt","type":"uint256","internalType":"uint256"},{"name":"unlockAt","type":"uint256","internalType":"uint256"},{"name":"status","type":"uint8","internalType":"enum X402InsuranceV3.ClaimStatus"}],"stateMutability":"view"},{"type":"function","name":"getPlatformStats","inputs":[],"outputs":[{"name":"","type":"tuple","internalType":"struct X402InsuranceV3.PlatformStats","components":[{"name":"totalPoolBalance","type":"uint256","internalType":"uint256"},{"name":"totalLockedBalance","type":"uint256","internalType":"uint256"},{"name":"totalProviders","type":"uint256","internalType":"uint256"},{"name":"activeProviders","type":"uint256","internalType":"uint256"},{"name":"totalTransactions","type":"uint256","internalType":"uint256"},{"name":"totalFailures","type":"uint256","internalType":"uint256"},{"name":"totalPenalties","type":"uint256","internalType":"uint256"},{"name":"totalRefunds","type":"uint256","internalType":"uint256"}]}],"stateMutability":"view"},{"type":"function","name":"getProviderInfo","inputs":[{"name":"provider","type":"address","internalType":"address"}],"outputs":[{"name":"poolBalance","type":"uint256","internalType":"uint256"},{"name":"availableBalance","type":"uint256","internalType":"uint256"},{"name":"lockedBalance","type":"uint256","internalType":"uint256"},{"name":"tier","type":"uint8","internalType":"enum X402InsuranceV3.ProviderTier"},{"name":"isActive","type":"bool","internalType":"bool"},{"name":"successRate","type":"uint256","internalType":"uint256"}],"stateMutability":"view"},{"type":"function","name":"getProviderStats","inputs":[{"name":"provider","type":"address","internalType":"address"}],"outputs":[{"name":"totalDeposited","type":"uint256","internalType":"uint256"},{"name":"totalWithdrawn","type":"uint256","internalType":"uint256"},{"name":"totalPenalties","type":"uint256","internalType":"uint256"},{"name":"successCount","type":"uint256","internalType":"uint256"},{"name":"failureCount","type":"uint256","internalType":"uint256"},{"name":"registeredAt","type":"uint256","internalType":"uint256"},{"name":"lastActivityAt","type":"uint256","internalType":"uint256"}],"stateMutability":"view"},{"type":"function","name":"lockInsurance","inputs":[{"name":"commitment","type":"bytes32","internalType":"bytes32"},{"name":"provider","type":"address","internalType":"address"},{"name":"client","type":"address","internalType":"address"},{"name":"amount","type":"uint256","internalType":"uint256"}],"outputs":[],"stateMutability":"nonpayable"},{"type":"function","name":"metaClaimInsurance","inputs":[{"name":"commitment","type":"bytes32","internalType":"bytes32"},{"name":"client","type":"address","internalType":"address"},{"name":"amount","type":"uint256","internalType":"uint256"},{"name":"deadline","type":"uint256","internalType":"uint256"},{"name":"v","type":"uint8","internalType":"uint8"},{"name":"r","type":"bytes32","internalType":"bytes32"},{"name":"s","type":"bytes32","internalType":"bytes32"}],"outputs":[],"stateMutability":"nonpayable"},{"type":"function","name":"owner","inputs":[],"outputs":[{"name":"","type":"address","internalType":"address"}],"stateMutability":"view"},{"type":"function","name":"pause","inputs":[],"outputs":[],"stateMutability":"nonpayable"},{"type":"function","name":"paused","inputs":[],"outputs":[{"name":"","type":"bool","internalType":"bool"}],"stateMutability":"view"},{"type":"function","name":"platformStats","inputs":[],"outputs":[{"name":"totalPoolBalance","type":"uint256","internalType":"uint256"},{"name":"totalLockedBalance","type":"uint256","internalType":"uint256"},{"name":"totalProviders","type":"uint256","internalType":"uint256"},{"name":"activeProviders","type":"uint256","internalType":"uint256"},{"name":"totalTransactions","type":"uint256","internalType":"uint256"},{"name":"totalFailures","type":"uint256","internalType":"uint256"},{"name":"totalPenalties","type":"uint256","internalType":"uint256"},{"name":"totalRefunds","type":"uint256","internalType":"uint256"}],"stateMutability":"view"},{"type":"function","name":"platformTreasury","inputs":[],"outputs":[{"name":"","type":"address","internalType":"address"}],"stateMutability":"view"},{"type":"function","name":"providers","inputs":[{"name":"","type":"address","internalType":"address"}],"outputs":[{"name":"poolBalance","type":"uint256","internalType":"uint256"},{"name":"lockedBalance","type":"uint256","internalType":"uint256"},{"name":"totalDeposited","type":"uint256","internalType":"uint256"},{"name":"totalWithdrawn","type":"uint256","internalType":"uint256"},{"name":"totalPenalties","type":"uint256","internalType":"uint256"},{"name":"successCount","type":"uint256","internalType":"uint256"},{"name":"failureCount","type":"uint256","internalType":"uint256"},{"name":"tier","type":"uint8","internalType":"enum X402InsuranceV3.ProviderTier"},{"name":"isActive","type":"bool","internalType":"bool"},{"name":"registeredAt","type":"uint256","internalType":"uint256"},{"name":"lastActivityAt","type":"uint256","internalType":"uint256"}],"stateMutability":"view"},{"type":"function","name":"registerAndDeposit","inputs":[{"name":"amount","type":"uint256","internalType":"uint256"}],"outputs":[],"stateMutability":"nonpayable"},{"type":"function","name":"renounceOwnership","inputs":[],"outputs":[],"stateMutability":"nonpayable"},{"type":"function","name":"setPlatformTreasury","inputs":[{"name":"_treasury","type":"address","internalType":"address"}],"outputs":[],"stateMutability":"nonpayable"},{"type":"function","name":"transferOwnership","inputs":[{"name":"newOwner","type":"address","internalType":"address"}],"outputs":[],"stateMutability":"nonpayable"},{"type":"function","name":"unpause","inputs":[],"outputs":[],"stateMutability":"nonpayable"},{"type":"function","name":"usdcToken","inputs":[],"outputs":[{"name":"","type":"address","internalType":"contract IERC20"}],"stateMutability":"view"},{"type":"function","name":"withdraw","inputs":[{"name":"amount","type":"uint256","internalType":"uint256"}],"outputs":[],"stateMutability":"nonpayable"},{"type":"function","name":"withdrawAllAndDeactivate","inputs":[],"outputs":[],"stateMutability":"nonpayable"},{"type":"event","name":"EIP712DomainChanged","inputs":[],"anonymous":false},{"type":"event","name":"InsuranceClaimed","inputs":[{"name":"commitment","type":"bytes32","indexed":true,"internalType":"bytes32"},{"name":"client","type":"address","indexed":true,"internalType":"address"},{"name":"refundAmount","type":"uint256","indexed":false,"internalType":"uint256"},{"name":"penaltyAmount","type":"uint256","indexed":false,"internalType":"uint256"}],"anonymous":false},{"type":"event","name":"InsuranceLocked","inputs":[{"name":"commitment","type":"bytes32","indexed":true,"internalType":"bytes32"},{"name":"provider","type":"address","indexed":true,"internalType":"address"},{"name":"client","type":"address","indexed":true,"internalType":"address"},{"name":"amount","type":"uint256","indexed":false,"internalType":"uint256"},{"name":"unlockAt","type":"uint256","indexed":false,"internalType":"uint256"}],"anonymous":false},{"type":"event","name":"OwnershipTransferred","inputs":[{"name":"previousOwner","type":"address","indexed":true,"internalType":"address"},{"name":"newOwner","type":"address","indexed":true,"internalType":"address"}],"anonymous":false},{"type":"event","name":"Paused","inputs":[{"name":"account","type":"address","indexed":false,"internalType":"address"}],"anonymous":false},{"type":"event","name":"ProviderDeactivated","inputs":[{"name":"provider","type":"address","indexed":true,"internalType":"address"},{"name":"withdrawnAmount","type":"uint256","indexed":false,"internalType":"uint256"}],"anonymous":false},{"type":"event","name":"ProviderDeposited","inputs":[{"name":"provider","type":"address","indexed":true,"internalType":"address"},{"name":"amount","type":"uint256","indexed":false,"internalType":"uint256"},{"name":"newBalance","type":"uint256","indexed":false,"internalType":"uint256"}],"anonymous":false},{"type":"event","name":"ProviderRegistered","inputs":[{"name":"provider","type":"address","indexed":true,"internalType":"address"},{"name":"amount","type":"uint256","indexed":false,"internalType":"uint256"},{"name":"tier","type":"uint8","indexed":false,"internalType":"enum X402InsuranceV3.ProviderTier"}],"anonymous":false},{"type":"event","name":"ProviderWarning","inputs":[{"name":"provider","type":"address","indexed":true,"internalType":"address"},{"name":"balance","type":"uint256","indexed":false,"internalType":"uint256"},{"name":"level","type":"string","indexed":false,"internalType":"string"}],"anonymous":false},{"type":"event","name":"ProviderWithdrawn","inputs":[{"name":"provider","type":"address","indexed":true,"internalType":"address"},{"name":"amount","type":"uint256","indexed":false,"internalType":"uint256"},{"name":"newBalance","type":"uint256","indexed":false,"internalType":"uint256"}],"anonymous":false},{"type":"event","name":"ServiceDelivered","inputs":[{"name":"commitment","type":"bytes32","indexed":true,"internalType":"bytes32"},{"name":"provider","type":"address","indexed":true,"internalType":"address"}],"anonymous":false},{"type":"event","name":"TierUpgraded","inputs":[{"name":"provider","type":"address","indexed":true,"internalType":"address"},{"name":"oldTier","type":"uint8","indexed":false,"internalType":"enum X402InsuranceV3.ProviderTier"},{"name":"newTier","type":"uint8","indexed":false,"internalType":"enum X402InsuranceV3.ProviderTier"}],"anonymous":false},{"type":"event","name":"Unpaused","inputs":[{"name":"account","type":"address","indexed":false,"internalType":"address"}],"anonymous":false},{"type":"error","name":"ECDSAInvalidSignature","inputs":[]},{"type":"error","name":"ECDSAInvalidSignatureLength","inputs":[{"name":"length","type":"uint256","internalType":"uint256"}]},{"type":"error","name":"ECDSAInvalidSignatureS","inputs":[{"name":"s","type":"bytes32","internalType":"bytes32"}]},{"type":"error","name":"EnforcedPause","inputs":[]},{"type":"error","name":"ExpectedPause","inputs":[]},{"type":"error","name":"InvalidShortString","inputs":[]},{"type":"error","name":"OwnableInvalidOwner","inputs":[{"name":"owner","type":"address","internalType":"address"}]},{"type":"error","name":"OwnableUnauthorizedAccount","inputs":[{"name":"account","type":"address","internalType":"address"}]},{"type":"error","name":"ReentrancyGuardReentrantCall","inputs":[]},{"type":"error","name":"SafeERC20FailedOperation","inputs":[{"name":"token","type":"address","internalType":"address"}]},{"type":"error","name":"StringTooLong","inputs":[{"name":"str","type":"string","internalType":"string"}]}],"bytecode":{"object":"0x6101803461028d57612f3d6001600160401b03601f38839003908101601f191684019082821185831017610262578085916040958694855283398101031261028d57610056602061004f856102ac565b94016102ac565b9180519061006382610291565b600f825260208201936e58343032496e737572616e6365563360881b855281519561008d87610291565b600587526020870194640312e302e360dc1b86523315610276575f8054336001600160a01b03198216811783556001600160a01b03989290918916907f8be0079c531659141344cd1fd0a4f28419497f9722a3daafe3b4186f6b6457e09080a36100f6866102fe565b976101209889526101068a610494565b96610140978852519020988960e0525190209161010098838a524660a05285519360208501917f8b73c3c69bb8fe3d512ecc4cf759cc79239f7b179b0ffacaa9a75d522b39400f83528786015260608501524660808501523060a085015260a0845260c084019284841090841117610262576101c493889387525190206080523060c05260017f9b779b17422d0df92223018b32b4d1fa46e071723d6817e2486d003becc55f005516946101bb8615156102c0565b821615156102c0565b61016093845260038054610100600160a81b03191660089290921b610100600160a81b03169190911790555161296c94909390856105d1863960805185612176015260a05185612242015260c05185612140015260e051856121c5015251846121eb01525183610ece01525182610ef701525181818161094201528181610b3301528181610d63015281816117e801528181611ac601526124160152f35b634e487b7160e01b5f52604160045260245ffd5b8351631e4fbdf760e01b81525f6004820152602490fd5b5f80fd5b604081019081106001600160401b0382111761026257604052565b51906001600160a01b038216820361028d57565b156102c757565b60405162461bcd60e51b815260206004820152600f60248201526e496e76616c6964206164647265737360881b6044820152606490fd5b8051602090818110156103745750601f825111610336578082519201519080831061032857501790565b825f19910360031b1b161790565b60448260405192839163305a27a960e01b83528160048401528051918291826024860152018484015e5f828201840152601f01601f19168101030190fd5b9192916001600160401b0381116102625760019182548381811c9116801561048a575b8282101461047657601f8111610443575b5080601f83116001146103e35750819293945f926103d8575b50505f19600383901b1c191690821b17905560ff90565b015190505f806103c1565b90601f19831695845f52825f20925f905b88821061042c5750508385969710610414575b505050811b01905560ff90565b01515f1960f88460031b161c191690555f8080610407565b8087859682949686015181550195019301906103f4565b835f5283601f835f20920160051c820191601f850160051c015b82811061046b5750506103a8565b5f815501849061045d565b634e487b7160e01b5f52602260045260245ffd5b90607f1690610397565b8051602090818110156104be5750601f825111610336578082519201519080831061032857501790565b906001600160401b03821161026257600254926001938481811c911680156105c6575b8382101461047657601f8111610592575b5081601f841160011461052e57509282939183925f94610523575b50501b915f199060031b1c19161760025560ff90565b015192505f8061050d565b919083601f19811660025f52845f20945f905b888383106105785750505010610560575b505050811b0160025560ff90565b01515f1960f88460031b161c191690555f8080610552565b858701518855909601959485019487935090810190610541565b60025f5284601f845f20920160051c820191601f860160051c015b8281106105bb5750506104f2565b5f81550185906105ad565b90607f16906104e156fe604060808152600480361015610013575f80fd5b60e05f35811c9081630426d17214611bc35781630787bc2714611b105781630ad08b8614611af557816311eac85514611ab2578163136d8883146119de5781631820cabb146119c15781631b6c490f1461194c5781632e1a7d4d146116bd5781633644e5151461169a5781633b9e1ab0146116405781633f4ba83a146115d85781634effa6eb1461137a5781635c975abb146113575781636b0509b11461131d578163715018a6146112c6578163733d93fc146112a857816374950ffd146111935781637583902f146110a65781637cd86d601461104a5781637f14c6d01461102c5781638456cb5914610fd357816384b0196e14610eb75781638da5cb5b14610e9057816395ccea6714610e0d5781639c19fbba14610ca6578163a53d9d3a14610c88578163ada6afa414610abf578163b4b9049514610aa2578163b6b55f25146108d9578163bb40310f146108bb578163bc048da414610884578163c4de5b7614610740578163c93391b014610721578163df08f57f14610703578163e0bc6c441461065e578163e138818c14610632578163e1f1c4a714610616578163e5e75b7d146105a0578163ea10a1c9146102ec578163eff0f59214610270575063f2fde38b146101e1575f80fd5b3461026c57602036600319011261026c576101fa611cdd565b90610203612268565b6001600160a01b039182169283156102565750505f54826bffffffffffffffffffffffff60a01b8216175f55167f8be0079c531659141344cd1fd0a4f28419497f9722a3daafe3b4186f6b6457e05f80a3005b905f6024925191631e4fbdf760e01b8352820152fd5b5f80fd5b83833461026c57602036600319011261026c5780355f526005602052815f2060018060a01b0392838254169360018301541692600283015460038401549184015492600660ff6005870154169501549581519788526020880152860152606085015260808401526102e081611d2a565b60a083015260c0820152f35b9050823461026c57608036600319011261026c5782359161030b611cf3565b926044356001600160a01b03818116949185900361026c576064359061032f611f82565b61033761257e565b80871694610346861515611f44565b610351871515611f44565b845f526020906005825260ff6005865f2001541661036e81611d2a565b61055d57865f5289825261038d60ff6007875f20015460081c16611e46565b865f52898252845f2080546001820190866103aa83548093611dbc565b1061051a57866103b991611d9b565b90556009429101556103cd84600854611d9b565b6008556201518042019283421161050757855191820182811067ffffffffffffffff8211176104f45787876104e19d8198979695946006947fcf8f4cbbb719cfe2df6693ce0afa3ae6f3575937a263d4242a64f1fb5aab4b3b9b528c86528d8787019081528387018a8152606088019142835260808901938b85528060a08b01976001895260c08c0199808b525f5260058d525f209a5116906bffffffffffffffffffffffff60a01b91828c5416178b5560018b019251169082541617905551600288015551600387015551908501556005840190516104ac81611d2a565b6104b581611d2a565b60ff80198354169116179055519101556104d0600b54611dc9565b600b558351928352820152a4612076565b60015f8051602061291783398151915255005b60418c634e487b7160e01b5f525260245ffd5b60118b634e487b7160e01b5f525260245ffd5b875162461bcd60e51b8152808e01869052601e60248201527f496e73756666696369656e7420617661696c61626c652062616c616e636500006044820152606490fd5b845162461bcd60e51b8152808b01839052601960248201527f436f6d6d69746d656e7420616c726561647920657869737473000000000000006044820152606490fd5b83833461026c57602036600319011261026c576001600160a01b036105c3611cdd565b165f5280602052815f206002810154926003820154928201546005830154906006840154926009600886015495015495815197885260208801528601526060850152608084015260a083015260c0820152f35b833461026c575f36600319011261026c57602090516127108152f35b833461026c575f36600319011261026c57600354905160089190911c6001600160a01b03168152602090f35b50503461026c57602036600319011261026c5780359161067c611f82565b825f526005602052805f20906106a4600160ff60058501541661069e81611d2a565b14611d58565b60018201546001600160a01b031633036106d0576104e1846106cb85850154421015611ef8565b612293565b5162461bcd60e51b8152602081840152600e60248201526d139bdd081d1a194818db1a595b9d60921b6044820152606490fd5b833461026c575f36600319011261026c57602090516302faf0808152f35b833461026c575f36600319011261026c576020905164012a05f2008152f35b82843461026c5760208060031936011261026c576107c392610760611cdd565b60018060a01b03165f528152815f2080549260ff6007610784600185015487611dbc565b93015460081c166107ce57805161079a81611e08565b6008815267494e41435449564560c01b84820152935b8151958695606087526060870190611d34565b938501528301520390f35b629896808410156107ff5780516107e481611e08565b600981526814d554d4115391115160ba1b84820152936107b0565b6301312d0084101561083057805161081681611e08565b600881526710d492551250d05360c21b84820152936107b0565b6302faf08084101561086057805161084781611e08565b60078152665741524e494e4760c81b84820152936107b0565b805161086b81611e08565b60078152664845414c54485960c81b84820152936107b0565b833461026c57602036600319011261026c576020906001600160a01b036108a9611cdd565b165f5260068252805f20549051908152f35b833461026c575f36600319011261026c57602090516305f5e1008152f35b82843461026c576020908160031936011261026c578235916108f9611f82565b61090161257e565b335f5283815261091c60ff6007845f20015460081c16611e46565b335f5283815261093462989680835f20541015611e88565b8215610a6f576109668330337f000000000000000000000000000000000000000000000000000000000000000061259c565b335f52838152815f2061097a848254611d9b565b8082556002820161098c868254611d9b565b905542600983015560ff600783016109b06109aa8383541694611fb1565b82611ed4565b54166005821015610a5c576005811015610a5c577fe992592fe4c45fbbb96da55146426d2320ceba9f18437223667da493550d2cda959650818111610a17575b50506109fe85600754611d9b565b600755549082519485528401523392a26104e133612076565b610a3090610a2786518094611d09565b84830190611d09565b7fcbbf00b5f55f1857f9362f521999f79036413e420d1b236d6bc143af30db731a843392a285806109f0565b602187634e487b7160e01b5f525260245ffd5b8390606492519162461bcd60e51b8352820152600e60248201526d125b9d985b1a5908185b5bdd5b9d60921b6044820152fd5b833461026c575f36600319011261026c5760209051629896808152f35b82843461026c576020908160031936011261026c578235610ade611f82565b610ae661257e565b6305f5e1008110610c4557335f5283835260ff6007835f20015460081c16610c0d577fe992592fe4c45fbbb96da55146426d2320ceba9f18437223667da493550d2cda9293610b578230337f000000000000000000000000000000000000000000000000000000000000000061259c565b335f52845260ff825f20828155826002820155600781019061010061ff0019835416178255426008820155600942910155610b946109aa84611fb1565b610ba083600754611d9b565b600755610bae600954611dc9565b600955610bbc600a54611dc9565b600a555416610bd383519183835286830190611d09565b7f57d314643bba38495581cebe1f7627d299bd42671765bfd77105c4f5093a530a833392a28151938185528401523392a26104e133612076565b815162461bcd60e51b81528085018490526012602482015271105b1c9958591e481c9959da5cdd195c995960721b6044820152606490fd5b815162461bcd60e51b8152808501849052601960248201527f4d696e696d756d203130302055534443207265717569726564000000000000006044820152606490fd5b833461026c575f36600319011261026c5760209051631dcd65008152f35b50503461026c575f36600319011261026c57610cc0611f82565b335f5280602052815f20916007830192835493610ce260ff8660081c16611e46565b815490610cf460018401548093611dbc565b948515610dd357507fa0268bac52afcba057630f7fd848d054d4a9610a645f6fb08124fe903d1a9d66949561ffff19169055815560038101610d37858254611d9b565b9055426009820155610d4b84600754611dbc565b600755610d59600a54611eec565b600a55610d8784337f0000000000000000000000000000000000000000000000000000000000000000611ff8565b81518481527f125b5598f5fc170cad4829e19fe85dbe3ca37fb0602266aad0d8c6ec34b5760260203392a254815193845260208401523392a260015f8051602061291783398151915255005b606490602086519162461bcd60e51b835282015260146024820152734e6f20617661696c61626c652062616c616e636560601b6044820152fd5b50503461026c578160031936011261026c57610e27611cdd565b91610e30612268565b60ff6003541615610e5a575f54610e5890602435906001600160a01b03908116908616611ff8565b005b906020606492519162461bcd60e51b8352820152601060248201526f4e6f7420696e20656d657267656e637960801b6044820152fd5b833461026c575f36600319011261026c575f5490516001600160a01b039091168152602090f35b82843461026c575f36600319011261026c57610ef27f000000000000000000000000000000000000000000000000000000000000000061271e565b610f1b7f0000000000000000000000000000000000000000000000000000000000000000612843565b91805192602092602085019585871067ffffffffffffffff881117610fc05750959493918060209286610f7593525f8552610f688251998a99600f60f81b8b5280878c01528a0190611d34565b9188830390890152611d34565b914660608701523060808701525f60a087015285830360c087015251918281520192915f5b828110610fa957505050500390f35b835185528695509381019392810192600101610f9a565b604190634e487b7160e01b5f525260245ffd5b833461026c575f36600319011261026c5760207f62e78cea01bee320cd4e420270b5ea74000d11b0c9f74754ebdbfc544b05a25891611010612268565b61101861257e565b600160ff19600354161760035551338152a1005b833461026c575f36600319011261026c57602090516301312d008152f35b3461026c57602036600319011261026c57611063611cdd565b61106b612268565b61107f6001600160a01b0382161515611f44565b60038054610100600160a81b03191660089290921b610100600160a81b0316919091179055005b82843461026c57602036600319011261026c576001600160a01b036110c9611cdd565b165f5281602052805f208054916001820154906110e68285611dbc565b9460058401546110fa600686015482611d9b565b9182158061117f5760648302928084046064149015171561116c57611159575091600760ff949260c0989404955b0154928151968752602087015285015261114760608501838316611d09565b60081c161515608083015260a0820152f35b601290634e487b7160e01b5f525260245ffd5b601182634e487b7160e01b5f525260245ffd5b505050509360ff9160c09560075f95611128565b50503461026c57602036600319011261026c578035906111b1611f82565b815f526005602052825f209060058201906111d5600160ff84541661069e81611d2a565b82546001600160a01b03163303611272576112369394600291335f526020525f20920191825461120a60018301918254611dbc565b90556005810161121a8154611dc9565b9055600942910155600260ff1982541617905554600854611dbc565b60085533907fb09d9df2a4b9c908ac53587e2861ca35a828cf5baa98298ba34dc326780db63f5f80a360015f8051602061291783398151915255005b606490602086519162461bcd60e51b8352820152601060248201526f2737ba103a343290383937bb34b232b960811b6044820152fd5b833461026c575f36600319011261026c5760209051633b9aca008152f35b3461026c575f36600319011261026c576112de612268565b5f80546001600160a01b0319811682556001600160a01b03167f8be0079c531659141344cd1fd0a4f28419497f9722a3daafe3b4186f6b6457e08280a3005b833461026c575f36600319011261026c57602090517fd6b74b8669b7c8b53c15162ee707c62951cc4e3406f806868a333f04f01f44ea8152f35b833461026c575f36600319011261026c5760209060ff6003541690519015158152f35b90503461026c578060031936011261026c57813591611397611cf3565b9060443592606435936084359060ff8216820361026c576113b6611f82565b8542116115a157865f5260209560058752885f20936113e1600160ff60058801541661069e81611d2a565b60018501546001600160a01b03978816979590861688900361156c57836002820154036115375786611417910154421015611ef8565b865f5260068852895f2054918a5192898401947fd6b74b8669b7c8b53c15162ee707c62951cc4e3406f806868a333f04f01f44ea86528b8d860152896060860152608085015260a084015260c083015260c08252810181811067ffffffffffffffff82111761152457926114c8926114bf928896958c5251902061149961213d565b908b519161190160f01b83526002830152602282015260c43591604260a4359220612606565b90929192612693565b16036114ed57506104e193916006915f52525f206114e68154611dc9565b9055612293565b845162461bcd60e51b81529081018390526011602482015270496e76616c6964207369676e617475726560781b6044820152606490fd5b604186634e487b7160e01b5f525260245ffd5b8a5162461bcd60e51b81528088018a9052600f60248201526e082dadeeadce840dad2e6dac2e8c6d608b1b6044820152606490fd5b8a5162461bcd60e51b81528088018a9052600f60248201526e086d8d2cadce840dad2e6dac2e8c6d608b1b6044820152606490fd5b875162461bcd60e51b8152602081860152601160248201527014da59db985d1d5c9948195e1c1a5c9959607a1b6044820152606490fd5b82843461026c575f36600319011261026c576115f2612268565b6003549160ff831615611632577f5db9ee0a495bf2e6ff9c91a7834c1ba4fdd244a5e8aa4e537bd38aeae4b073aa6020838560ff191660035551338152a1005b9051638dfc202b60e01b8152fd5b83903461026c575f36600319011261026c57610100916007549160085491600954600a54600b5490600c5492600d5494600e54978151998a5260208a01528801526060870152608086015260a085015260c0840152820152f35b833461026c575f36600319011261026c576020906116b661213d565b9051908152f35b50503461026c576020908160031936011261026c5780356116dc611f82565b335f528183526007926116f960ff85875f20015460081c16611e46565b335f528281526298968061171281875f20541015611e88565b335f52838252855f2093845461172c600187015482611dbc565b8515159081611941575b50156118fe578461174691611dbc565b9182865560038601611759868254611d9b565b905542600987015582101561184557505060ff947fa0268bac52afcba057630f7fd848d054d4a9610a645f6fb08124fe903d1a9d669185850161ffff1981541690556117a6600a54611eec565b600a5581518481527f125b5598f5fc170cad4829e19fe85dbe3ca37fb0602266aad0d8c6ec34b57602823392a25b6117df848754611dbc565b865561180c84337f0000000000000000000000000000000000000000000000000000000000000000611ff8565b84549082519485528401523392a2015460081c166118375760015f8051602061291783398151915255005b61184033612076565b6104e1565b60ff86860161185a6109aa8383541695611fb1565b54169060058310156118eb5760058210156118eb575091818360ff98937fa0268bac52afcba057630f7fd848d054d4a9610a645f6fb08124fe903d1a9d6695106118a6575b50506117d4565b6118bf906118b685518094611d09565b83830190611d09565b7fcbbf00b5f55f1857f9362f521999f79036413e420d1b236d6bc143af30db731a833392a25f8061189f565b602190634e487b7160e01b5f525260245ffd5b875162461bcd60e51b8152808301859052601960248201527f496e76616c6964207769746864726177616c20616d6f756e74000000000000006044820152606490fd5b90508511155f611736565b50503461026c57602036600319011261026c5760c09181355f526005602052805f2060018060a01b039283825416936001830154169260028301549060ff6005600386015494860154950154169481519687526020870152850152606084015260808301526119ba81611d2a565b60a0820152f35b833461026c575f36600319011261026c5760209051620151808152f35b833461026c575f36600319011261026c57815f610100938351611a0081611dd7565b82815282602082015282858201528260608201528260808201528260a08201528260c082015201528151611a3381611dd7565b60075492838252600854906020830191825260095490808401918252600a5460608501908152600b549160808601928352600c549360a08701948552600d549560c0880196875288600e5498019788528251998a525160208a015251908801525160608701525160808601525160a08501525160c08401525190820152f35b833461026c575f36600319011261026c57517f00000000000000000000000000000000000000000000000000000000000000006001600160a01b03168152602090f35b833461026c575f36600319011261026c576020905160c88152f35b9190503461026c57602036600319011261026c57610160926001600160a01b03611b38611cdd565b165f528160205260ff815f2091611ba983549560018501549560028601549060038701549087015460058801549160068901549360078a015497600960088c01549b01549b602082519e8f90815201528c015260608b015260808a015260a089015260c08801528601838316611d09565b60081c161515610100840152610120830152610140820152f35b50503461026c57602036600319011261026c57803591611be1611f82565b825f526005602052805f20906005820190611c05600160ff84541661069e81611d2a565b83830154620151808101809111611cca574210611c885790611c4b9160018060a01b0394858554165f526020525f20906002840191825461120a60018301918254611dbc565b6008555416907fb09d9df2a4b9c908ac53587e2861ca35a828cf5baa98298ba34dc326780db63f5f80a360015f8051602061291783398151915255005b5162461bcd60e51b8152602081850152601e60248201527f4175746f2d756e6c6f636b20706572696f64206e6f74207265616368656400006044820152606490fd5b601185634e487b7160e01b5f525260245ffd5b600435906001600160a01b038216820361026c57565b602435906001600160a01b038216820361026c57565b906005821015611d165752565b634e487b7160e01b5f52602160045260245ffd5b60041115611d1657565b805180835260209291819084018484015e5f828201840152601f01601f1916010190565b15611d5f57565b60405162461bcd60e51b8152602060048201526014602482015273496e76616c696420636c61696d2073746174757360601b6044820152606490fd5b91908201809211611da857565b634e487b7160e01b5f52601160045260245ffd5b91908203918211611da857565b5f198114611da85760010190565b610100810190811067ffffffffffffffff821117611df457604052565b634e487b7160e01b5f52604160045260245ffd5b6040810190811067ffffffffffffffff821117611df457604052565b90601f8019910116810190811067ffffffffffffffff821117611df457604052565b15611e4d57565b60405162461bcd60e51b815260206004820152601360248201527250726f7669646572206e6f742061637469766560681b6044820152606490fd5b15611e8f57565b60405162461bcd60e51b815260206004820152601960248201527f496e73756666696369656e7420706f6f6c2062616c616e6365000000000000006044820152606490fd5b906005811015611d165760ff80198354169116179055565b8015611da8575f190190565b15611eff57565b60405162461bcd60e51b815260206004820152601760248201527f4c6f636b20706572696f64206e6f7420657870697265640000000000000000006044820152606490fd5b15611f4b57565b60405162461bcd60e51b815260206004820152600f60248201526e496e76616c6964206164647265737360881b6044820152606490fd5b5f805160206129178339815191526002815414611f9f5760029055565b604051633ee5aeb560e01b8152600490fd5b64012a05f2008110611fc35750600490565b633b9aca008110611fd45750600390565b631dcd65008110611fe55750600290565b6305f5e10011611ff457600190565b5f90565b60405163a9059cbb60e01b5f9081526001600160a01b039384166004526024949094529260209060448180855af160015f5114811615612057575b836040521561204157505050565b635274afe760e01b835216600482015260249150fd5b600181151661206d57813b15153d151616612033565b833d5f823e3d90fd5b6001600160a01b03165f818152600460205260409081902054906301312d008210156120e5577f0142b90d0e5d5dee617b7286fd1700ea409b656516e2469477439057663e98ed91600882608093519283528060208401528201526710d492551250d05360c21b6060820152a2565b6302faf08082106120f557505050565b7f0142b90d0e5d5dee617b7286fd1700ea409b656516e2469477439057663e98ed9160078260809351928352806020840152820152665741524e494e4760c81b6060820152a2565b307f00000000000000000000000000000000000000000000000000000000000000006001600160a01b0316148061223f575b15612198577f000000000000000000000000000000000000000000000000000000000000000090565b60405160208101907f8b73c3c69bb8fe3d512ecc4cf759cc79239f7b179b0ffacaa9a75d522b39400f82527f000000000000000000000000000000000000000000000000000000000000000060408201527f000000000000000000000000000000000000000000000000000000000000000060608201524660808201523060a082015260a0815260c0810181811067ffffffffffffffff821117611df45760405251902090565b507f0000000000000000000000000000000000000000000000000000000000000000461461216f565b5f546001600160a01b0316330361227b57565b60405163118cdaa760e01b8152336004820152602490fd5b805f5260209060058252604091825f209260018060a01b0392838554165f52600491828452805f2093600287019384549060c8820282810460c8148315171561116c576127106122e591048093611d9b565b90875482811061253b57826122f991611dbc565b808955875461230d60018b01918254611dbc565b905581890161231d858254611d9b565b90556006890161232d8154611dc9565b90554260098a01556298968081101561247f575050928694927f8eb4eed467fc5c7755e66d69265bf2e08809ee62e6f40d0a6c08ae06dc3575e2926123cd600798968960ff9b0161ffff198154169055612388600a54611eec565b600a558b8d54167f125b5598f5fc170cad4829e19fe85dbe3ca37fb0602266aad0d8c6ec34b576028587515f8152a25b60058d0160038c198254161790558954611dbc565b88556123dc8654600854611dbc565b6008556123ea600c54611dc9565b600c556123f981600d54611d9b565b600d556124098654600e54611d9b565b600e55898b6124568360017f0000000000000000000000000000000000000000000000000000000000000000930192612448858554168c549083611ff8565b8460035460081c1690611ff8565b54169554918351928352820152a3015460081c16612472575050565b61247d915416612076565b565b60ff60078a016124956109aa8383541694611fb1565b54169160058210156118eb5760058310156118eb5750926123cd8693838c60079b998f987f8eb4eed467fc5c7755e66d69265bf2e08809ee62e6f40d0a6c08ae06dc3575e29960ff9f9d9b9882116124f2575b50505050506123b8565b7fcbbf00b5f55f1857f9362f521999f79036413e420d1b236d6bc143af30db731a936125309154169461252784518094611d09565b89830190611d09565ba25f8c868f806124e8565b855162461bcd60e51b8152808301869052601d60248201527f496e73756666696369656e742070726f76696465722062616c616e63650000006044820152606490fd5b60ff6003541661258a57565b60405163d93c066560e01b8152600490fd5b6040516323b872dd60e01b5f9081526001600160a01b03938416600452938316602452604494909452909160209060648180855af160015f51148116156125f0575b836040525f6060521561204157505050565b600181151661206d57813b15153d1516166125de565b91907f7fffffffffffffffffffffffffffffff5d576e7357a4501ddfe92f46681b20a08411612688579160209360809260ff5f9560405194855216868401526040830152606082015282805260015afa1561267d575f516001600160a01b0381161561267357905f905f90565b505f906001905f90565b6040513d5f823e3d90fd5b5050505f9160039190565b61269c81611d2a565b806126a5575050565b6126ae81611d2a565b600181036126c85760405163f645eedf60e01b8152600490fd5b6126d181611d2a565b600281036126f25760405163fce698f760e01b815260048101839052602490fd5b806126fe600392611d2a565b146127065750565b602490604051906335e2f38360e21b82526004820152fd5b60ff811461275c5760ff811690601f821161274a576040519161274083611e08565b8252602082015290565b604051632cd44ac360e21b8152600490fd5b506040515f60018054918260011c60018416928315612839575b602094858310851461282557828752869490811561280557506001146127a8575b50506127a592500382611e24565b90565b9093915060015f527fb10e2d527612073b26eecdfd717e6a320cf44b4afac2b0732d9fcbe2b7fa0cf6935f915b8183106127ed5750506127a593508201015f80612797565b855487840185015294850194869450918301916127d5565b9150506127a594925060ff191682840152151560051b8201015f80612797565b634e487b7160e01b5f52602260045260245ffd5b90607f1690612776565b60ff81146128655760ff811690601f821161274a576040519161274083611e08565b506040515f600254906001908260011c6001841692831561290c575b602094858310851461282557828752869490811561280557506001146128af5750506127a592500382611e24565b9093915060025f527f405787fa12a823e0f2b7631cc41b3ba8828b3321ca811111fa75cd3aa3bb5ace935f915b8183106128f45750506127a593508201015f80612797565b855487840185015294850194869450918301916128dc565b90607f169061288156fe9b779b17422d0df92223018b32b4d1fa46e071723d6817e2486d003becc55f00a26469706673582212203bf990dfe04773c371c4238ba41a96410cff07346ef9ba4bc4de17defdacfe1264736f6c63430008190033","linkReferences":{}},"methodIdentifiers":{"BASIS_POINTS()":"e1f1c4a7","BRONZE_MIN()":"bb40310f","CLAIM_TYPEHASH()":"6b0509b1","CRITICAL_THRESHOLD()":"7f14c6d0","DOMAIN_SEPARATOR()":"3644e515","GOLD_MIN()":"733d93fc","LOCK_PERIOD()":"1820cabb","MIN_POOL_BALANCE()":"b4b90495","PENALTY_RATE()":"0ad08b86","PLATINUM_MIN()":"c93391b0","SILVER_MIN()":"a53d9d3a","WARNING_THRESHOLD()":"df08f57f","autoUnlock(bytes32)":"0426d172","checkProviderHealth(address)":"c4de5b76","claimInsurance(bytes32)":"e0bc6c44","claims(bytes32)":"eff0f592","clientNonces(address)":"bc048da4","confirmDelivery(bytes32)":"74950ffd","deposit(uint256)":"b6b55f25","eip712Domain()":"84b0196e","emergencyWithdraw(address,uint256)":"95ccea67","getClaimDetails(bytes32)":"1b6c490f","getPlatformStats()":"136d8883","getProviderInfo(address)":"7583902f","getProviderStats(address)":"e5e75b7d","lockInsurance(bytes32,address,address,uint256)":"ea10a1c9","metaClaimInsurance(bytes32,address,uint256,uint256,uint8,bytes32,bytes32)":"4effa6eb","owner()":"8da5cb5b","pause()":"8456cb59","paused()":"5c975abb","platformStats()":"3b9e1ab0","platformTreasury()":"e138818c","providers(address)":"0787bc27","registerAndDeposit(uint256)":"ada6afa4","renounceOwnership()":"715018a6","setPlatformTreasury(address)":"7cd86d60","transferOwnership(address)":"f2fde38b","unpause()":"3f4ba83a","usdcToken()":"11eac855","withdraw(uint256)":"2e1a7d4d","withdrawAllAndDeactivate()":"9c19fbba"},"id":49}